{
	"data": {
		"bytecode": {
			"linkReferences": {},
			"object": "60806040525f6001553480156012575f80fd5b5061086f806100205f395ff3fe608060405234801561000f575f80fd5b506004361061004a575f3560e01c8063111343841461004e578063213dafcd1461007e578063b77bf600146100ae578063f825c803146100cc575b5f80fd5b610068600480360381019061006391906102a6565b6100e8565b6040516100759190610341565b60405180910390f35b610098600480360381019061009391906102a6565b610188565b6040516100a59190610341565b60405180910390f35b6100b6610222565b6040516100c39190610370565b60405180910390f35b6100e660048036038101906100e191906104b5565b610228565b005b60605f808381526020019081526020015f20805461010590610529565b80601f016020809104026020016040519081016040528092919081815260200182805461013190610529565b801561017c5780601f106101535761010080835404028352916020019161017c565b820191905f5260205f20905b81548152906001019060200180831161015f57829003601f168201915b50505050509050919050565b5f602052805f5260405f205f9150905080546101a390610529565b80601f01602080910402602001604051908101604052809291908181526020018280546101cf90610529565b801561021a5780601f106101f15761010080835404028352916020019161021a565b820191905f5260205f20905b8154815290600101906020018083116101fd57829003601f168201915b505050505081565b60015481565b60015f81548092919061023a90610586565b9190505550805f8060015481526020019081526020015f20908161025e919061076a565b5050565b5f604051905090565b5f80fd5b5f80fd5b5f819050919050565b61028581610273565b811461028f575f80fd5b50565b5f813590506102a08161027c565b92915050565b5f602082840312156102bb576102ba61026b565b5b5f6102c884828501610292565b91505092915050565b5f81519050919050565b5f82825260208201905092915050565b8281835e5f83830152505050565b5f601f19601f8301169050919050565b5f610313826102d1565b61031d81856102db565b935061032d8185602086016102eb565b610336816102f9565b840191505092915050565b5f6020820190508181035f8301526103598184610309565b905092915050565b61036a81610273565b82525050565b5f6020820190506103835f830184610361565b92915050565b5f80fd5b5f80fd5b7f4e487b71000000000000000000000000000000000000000000000000000000005f52604160045260245ffd5b6103c7826102f9565b810181811067ffffffffffffffff821117156103e6576103e5610391565b5b80604052505050565b5f6103f8610262565b905061040482826103be565b919050565b5f67ffffffffffffffff82111561042357610422610391565b5b61042c826102f9565b9050602081019050919050565b828183375f83830152505050565b5f61045961045484610409565b6103ef565b9050828152602081018484840111156104755761047461038d565b5b610480848285610439565b509392505050565b5f82601f83011261049c5761049b610389565b5b81356104ac848260208601610447565b91505092915050565b5f602082840312156104ca576104c961026b565b5b5f82013567ffffffffffffffff8111156104e7576104e661026f565b5b6104f384828501610488565b91505092915050565b7f4e487b71000000000000000000000000000000000000000000000000000000005f52602260045260245ffd5b5f600282049050600182168061054057607f821691505b602082108103610553576105526104fc565b5b50919050565b7f4e487b71000000000000000000000000000000000000000000000000000000005f52601160045260245ffd5b5f61059082610273565b91507fffffffffffffffffffffffffffffffffffffffffffffffffffffffffffffffff82036105c2576105c1610559565b5b600182019050919050565b5f819050815f5260205f209050919050565b5f6020601f8301049050919050565b5f82821b905092915050565b5f600883026106297fffffffffffffffffffffffffffffffffffffffffffffffffffffffffffffffff826105ee565b61063386836105ee565b95508019841693508086168417925050509392505050565b5f819050919050565b5f61066e61066961066484610273565b61064b565b610273565b9050919050565b5f819050919050565b61068783610654565b61069b61069382610675565b8484546105fa565b825550505050565b5f90565b6106af6106a3565b6106ba81848461067e565b505050565b5b818110156106dd576106d25f826106a7565b6001810190506106c0565b5050565b601f821115610722576106f3816105cd565b6106fc846105df565b8101602085101561070b578190505b61071f610717856105df565b8301826106bf565b50505b505050565b5f82821c905092915050565b5f6107425f1984600802610727565b1980831691505092915050565b5f61075a8383610733565b9150826002028217905092915050565b610773826102d1565b67ffffffffffffffff81111561078c5761078b610391565b5b6107968254610529565b6107a18282856106e1565b5f60209050601f8311600181146107d2575f84156107c0578287015190505b6107ca858261074f565b865550610831565b601f1984166107e0866105cd565b5f5b82811015610807578489015182556001820191506020850194506020810190506107e2565b868310156108245784890151610820601f891682610733565b8355505b6001600288020188555050505b50505050505056fea2646970667358221220219652d2de3a31850102d5cc350cb5a48ee6d9d0e3f4a54d099854aca384c65c64736f6c634300081a0033",
			"opcodes": "PUSH1 0x80 PUSH1 0x40 MSTORE PUSH0 PUSH1 0x1 SSTORE CALLVALUE DUP1 ISZERO PUSH1 0x12 JUMPI PUSH0 DUP1 REVERT JUMPDEST POP PUSH2 0x86F DUP1 PUSH2 0x20 PUSH0 CODECOPY PUSH0 RETURN INVALID PUSH1 0x80 PUSH1 0x40 MSTORE CALLVALUE DUP1 ISZERO PUSH2 0xF JUMPI PUSH0 DUP1 REVERT JUMPDEST POP PUSH1 0x4 CALLDATASIZE LT PUSH2 0x4A JUMPI PUSH0 CALLDATALOAD PUSH1 0xE0 SHR DUP1 PUSH4 0x11134384 EQ PUSH2 0x4E JUMPI DUP1 PUSH4 0x213DAFCD EQ PUSH2 0x7E JUMPI DUP1 PUSH4 0xB77BF600 EQ PUSH2 0xAE JUMPI DUP1 PUSH4 0xF825C803 EQ PUSH2 0xCC JUMPI JUMPDEST PUSH0 DUP1 REVERT JUMPDEST PUSH2 0x68 PUSH1 0x4 DUP1 CALLDATASIZE SUB DUP2 ADD SWAP1 PUSH2 0x63 SWAP2 SWAP1 PUSH2 0x2A6 JUMP JUMPDEST PUSH2 0xE8 JUMP JUMPDEST PUSH1 0x40 MLOAD PUSH2 0x75 SWAP2 SWAP1 PUSH2 0x341 JUMP JUMPDEST PUSH1 0x40 MLOAD DUP1 SWAP2 SUB SWAP1 RETURN JUMPDEST PUSH2 0x98 PUSH1 0x4 DUP1 CALLDATASIZE SUB DUP2 ADD SWAP1 PUSH2 0x93 SWAP2 SWAP1 PUSH2 0x2A6 JUMP JUMPDEST PUSH2 0x188 JUMP JUMPDEST PUSH1 0x40 MLOAD PUSH2 0xA5 SWAP2 SWAP1 PUSH2 0x341 JUMP JUMPDEST PUSH1 0x40 MLOAD DUP1 SWAP2 SUB SWAP1 RETURN JUMPDEST PUSH2 0xB6 PUSH2 0x222 JUMP JUMPDEST PUSH1 0x40 MLOAD PUSH2 0xC3 SWAP2 SWAP1 PUSH2 0x370 JUMP JUMPDEST PUSH1 0x40 MLOAD DUP1 SWAP2 SUB SWAP1 RETURN JUMPDEST PUSH2 0xE6 PUSH1 0x4 DUP1 CALLDATASIZE SUB DUP2 ADD SWAP1 PUSH2 0xE1 SWAP2 SWAP1 PUSH2 0x4B5 JUMP JUMPDEST PUSH2 0x228 JUMP JUMPDEST STOP JUMPDEST PUSH1 0x60 PUSH0 DUP1 DUP4 DUP2 MSTORE PUSH1 0x20 ADD SWAP1 DUP2 MSTORE PUSH1 0x20 ADD PUSH0 KECCAK256 DUP1 SLOAD PUSH2 0x105 SWAP1 PUSH2 0x529 JUMP JUMPDEST DUP1 PUSH1 0x1F ADD PUSH1 0x20 DUP1 SWAP2 DIV MUL PUSH1 0x20 ADD PUSH1 0x40 MLOAD SWAP1 DUP2 ADD PUSH1 0x40 MSTORE DUP1 SWAP3 SWAP2 SWAP1 DUP2 DUP2 MSTORE PUSH1 0x20 ADD DUP3 DUP1 SLOAD PUSH2 0x131 SWAP1 PUSH2 0x529 JUMP JUMPDEST DUP1 ISZERO PUSH2 0x17C JUMPI DUP1 PUSH1 0x1F LT PUSH2 0x153 JUMPI PUSH2 0x100 DUP1 DUP4 SLOAD DIV MUL DUP4 MSTORE SWAP2 PUSH1 0x20 ADD SWAP2 PUSH2 0x17C JUMP JUMPDEST DUP3 ADD SWAP2 SWAP1 PUSH0 MSTORE PUSH1 0x20 PUSH0 KECCAK256 SWAP1 JUMPDEST DUP2 SLOAD DUP2 MSTORE SWAP1 PUSH1 0x1 ADD SWAP1 PUSH1 0x20 ADD DUP1 DUP4 GT PUSH2 0x15F JUMPI DUP3 SWAP1 SUB PUSH1 0x1F AND DUP3 ADD SWAP2 JUMPDEST POP POP POP POP POP SWAP1 POP SWAP2 SWAP1 POP JUMP JUMPDEST PUSH0 PUSH1 0x20 MSTORE DUP1 PUSH0 MSTORE PUSH1 0x40 PUSH0 KECCAK256 PUSH0 SWAP2 POP SWAP1 POP DUP1 SLOAD PUSH2 0x1A3 SWAP1 PUSH2 0x529 JUMP JUMPDEST DUP1 PUSH1 0x1F ADD PUSH1 0x20 DUP1 SWAP2 DIV MUL PUSH1 0x20 ADD PUSH1 0x40 MLOAD SWAP1 DUP2 ADD PUSH1 0x40 MSTORE DUP1 SWAP3 SWAP2 SWAP1 DUP2 DUP2 MSTORE PUSH1 0x20 ADD DUP3 DUP1 SLOAD PUSH2 0x1CF SWAP1 PUSH2 0x529 JUMP JUMPDEST DUP1 ISZERO PUSH2 0x21A JUMPI DUP1 PUSH1 0x1F LT PUSH2 0x1F1 JUMPI PUSH2 0x100 DUP1 DUP4 SLOAD DIV MUL DUP4 MSTORE SWAP2 PUSH1 0x20 ADD SWAP2 PUSH2 0x21A JUMP JUMPDEST DUP3 ADD SWAP2 SWAP1 PUSH0 MSTORE PUSH1 0x20 PUSH0 KECCAK256 SWAP1 JUMPDEST DUP2 SLOAD DUP2 MSTORE SWAP1 PUSH1 0x1 ADD SWAP1 PUSH1 0x20 ADD DUP1 DUP4 GT PUSH2 0x1FD JUMPI DUP3 SWAP1 SUB PUSH1 0x1F AND DUP3 ADD SWAP2 JUMPDEST POP POP POP POP POP DUP2 JUMP JUMPDEST PUSH1 0x1 SLOAD DUP2 JUMP JUMPDEST PUSH1 0x1 PUSH0 DUP2 SLOAD DUP1 SWAP3 SWAP2 SWAP1 PUSH2 0x23A SWAP1 PUSH2 0x586 JUMP JUMPDEST SWAP2 SWAP1 POP SSTORE POP DUP1 PUSH0 DUP1 PUSH1 0x1 SLOAD DUP2 MSTORE PUSH1 0x20 ADD SWAP1 DUP2 MSTORE PUSH1 0x20 ADD PUSH0 KECCAK256 SWAP1 DUP2 PUSH2 0x25E SWAP2 SWAP1 PUSH2 0x76A JUMP JUMPDEST POP POP JUMP JUMPDEST PUSH0 PUSH1 0x40 MLOAD SWAP1 POP SWAP1 JUMP JUMPDEST PUSH0 DUP1 REVERT JUMPDEST PUSH0 DUP1 REVERT JUMPDEST PUSH0 DUP2 SWAP1 POP SWAP2 SWAP1 POP JUMP JUMPDEST PUSH2 0x285 DUP2 PUSH2 0x273 JUMP JUMPDEST DUP2 EQ PUSH2 0x28F JUMPI PUSH0 DUP1 REVERT JUMPDEST POP JUMP JUMPDEST PUSH0 DUP2 CALLDATALOAD SWAP1 POP PUSH2 0x2A0 DUP2 PUSH2 0x27C JUMP JUMPDEST SWAP3 SWAP2 POP POP JUMP JUMPDEST PUSH0 PUSH1 0x20 DUP3 DUP5 SUB SLT ISZERO PUSH2 0x2BB JUMPI PUSH2 0x2BA PUSH2 0x26B JUMP JUMPDEST JUMPDEST PUSH0 PUSH2 0x2C8 DUP5 DUP3 DUP6 ADD PUSH2 0x292 JUMP JUMPDEST SWAP2 POP POP SWAP3 SWAP2 POP POP JUMP JUMPDEST PUSH0 DUP2 MLOAD SWAP1 POP SWAP2 SWAP1 POP JUMP JUMPDEST PUSH0 DUP3 DUP3 MSTORE PUSH1 0x20 DUP3 ADD SWAP1 POP SWAP3 SWAP2 POP POP JUMP JUMPDEST DUP3 DUP2 DUP4 MCOPY PUSH0 DUP4 DUP4 ADD MSTORE POP POP POP JUMP JUMPDEST PUSH0 PUSH1 0x1F NOT PUSH1 0x1F DUP4 ADD AND SWAP1 POP SWAP2 SWAP1 POP JUMP JUMPDEST PUSH0 PUSH2 0x313 DUP3 PUSH2 0x2D1 JUMP JUMPDEST PUSH2 0x31D DUP2 DUP6 PUSH2 0x2DB JUMP JUMPDEST SWAP4 POP PUSH2 0x32D DUP2 DUP6 PUSH1 0x20 DUP7 ADD PUSH2 0x2EB JUMP JUMPDEST PUSH2 0x336 DUP2 PUSH2 0x2F9 JUMP JUMPDEST DUP5 ADD SWAP2 POP POP SWAP3 SWAP2 POP POP JUMP JUMPDEST PUSH0 PUSH1 0x20 DUP3 ADD SWAP1 POP DUP2 DUP2 SUB PUSH0 DUP4 ADD MSTORE PUSH2 0x359 DUP2 DUP5 PUSH2 0x309 JUMP JUMPDEST SWAP1 POP SWAP3 SWAP2 POP POP JUMP JUMPDEST PUSH2 0x36A DUP2 PUSH2 0x273 JUMP JUMPDEST DUP3 MSTORE POP POP JUMP JUMPDEST PUSH0 PUSH1 0x20 DUP3 ADD SWAP1 POP PUSH2 0x383 PUSH0 DUP4 ADD DUP5 PUSH2 0x361 JUMP JUMPDEST SWAP3 SWAP2 POP POP JUMP JUMPDEST PUSH0 DUP1 REVERT JUMPDEST PUSH0 DUP1 REVERT JUMPDEST PUSH32 0x4E487B7100000000000000000000000000000000000000000000000000000000 PUSH0 MSTORE PUSH1 0x41 PUSH1 0x4 MSTORE PUSH1 0x24 PUSH0 REVERT JUMPDEST PUSH2 0x3C7 DUP3 PUSH2 0x2F9 JUMP JUMPDEST DUP2 ADD DUP2 DUP2 LT PUSH8 0xFFFFFFFFFFFFFFFF DUP3 GT OR ISZERO PUSH2 0x3E6 JUMPI PUSH2 0x3E5 PUSH2 0x391 JUMP JUMPDEST JUMPDEST DUP1 PUSH1 0x40 MSTORE POP POP POP JUMP JUMPDEST PUSH0 PUSH2 0x3F8 PUSH2 0x262 JUMP JUMPDEST SWAP1 POP PUSH2 0x404 DUP3 DUP3 PUSH2 0x3BE JUMP JUMPDEST SWAP2 SWAP1 POP JUMP JUMPDEST PUSH0 PUSH8 0xFFFFFFFFFFFFFFFF DUP3 GT ISZERO PUSH2 0x423 JUMPI PUSH2 0x422 PUSH2 0x391 JUMP JUMPDEST JUMPDEST PUSH2 0x42C DUP3 PUSH2 0x2F9 JUMP JUMPDEST SWAP1 POP PUSH1 0x20 DUP2 ADD SWAP1 POP SWAP2 SWAP1 POP JUMP JUMPDEST DUP3 DUP2 DUP4 CALLDATACOPY PUSH0 DUP4 DUP4 ADD MSTORE POP POP POP JUMP JUMPDEST PUSH0 PUSH2 0x459 PUSH2 0x454 DUP5 PUSH2 0x409 JUMP JUMPDEST PUSH2 0x3EF JUMP JUMPDEST SWAP1 POP DUP3 DUP2 MSTORE PUSH1 0x20 DUP2 ADD DUP5 DUP5 DUP5 ADD GT ISZERO PUSH2 0x475 JUMPI PUSH2 0x474 PUSH2 0x38D JUMP JUMPDEST JUMPDEST PUSH2 0x480 DUP5 DUP3 DUP6 PUSH2 0x439 JUMP JUMPDEST POP SWAP4 SWAP3 POP POP POP JUMP JUMPDEST PUSH0 DUP3 PUSH1 0x1F DUP4 ADD SLT PUSH2 0x49C JUMPI PUSH2 0x49B PUSH2 0x389 JUMP JUMPDEST JUMPDEST DUP2 CALLDATALOAD PUSH2 0x4AC DUP5 DUP3 PUSH1 0x20 DUP7 ADD PUSH2 0x447 JUMP JUMPDEST SWAP2 POP POP SWAP3 SWAP2 POP POP JUMP JUMPDEST PUSH0 PUSH1 0x20 DUP3 DUP5 SUB SLT ISZERO PUSH2 0x4CA JUMPI PUSH2 0x4C9 PUSH2 0x26B JUMP JUMPDEST JUMPDEST PUSH0 DUP3 ADD CALLDATALOAD PUSH8 0xFFFFFFFFFFFFFFFF DUP2 GT ISZERO PUSH2 0x4E7 JUMPI PUSH2 0x4E6 PUSH2 0x26F JUMP JUMPDEST JUMPDEST PUSH2 0x4F3 DUP5 DUP3 DUP6 ADD PUSH2 0x488 JUMP JUMPDEST SWAP2 POP POP SWAP3 SWAP2 POP POP JUMP JUMPDEST PUSH32 0x4E487B7100000000000000000000000000000000000000000000000000000000 PUSH0 MSTORE PUSH1 0x22 PUSH1 0x4 MSTORE PUSH1 0x24 PUSH0 REVERT JUMPDEST PUSH0 PUSH1 0x2 DUP3 DIV SWAP1 POP PUSH1 0x1 DUP3 AND DUP1 PUSH2 0x540 JUMPI PUSH1 0x7F DUP3 AND SWAP2 POP JUMPDEST PUSH1 0x20 DUP3 LT DUP2 SUB PUSH2 0x553 JUMPI PUSH2 0x552 PUSH2 0x4FC JUMP JUMPDEST JUMPDEST POP SWAP2 SWAP1 POP JUMP JUMPDEST PUSH32 0x4E487B7100000000000000000000000000000000000000000000000000000000 PUSH0 MSTORE PUSH1 0x11 PUSH1 0x4 MSTORE PUSH1 0x24 PUSH0 REVERT JUMPDEST PUSH0 PUSH2 0x590 DUP3 PUSH2 0x273 JUMP JUMPDEST SWAP2 POP PUSH32 0xFFFFFFFFFFFFFFFFFFFFFFFFFFFFFFFFFFFFFFFFFFFFFFFFFFFFFFFFFFFFFFFF DUP3 SUB PUSH2 0x5C2 JUMPI PUSH2 0x5C1 PUSH2 0x559 JUMP JUMPDEST JUMPDEST PUSH1 0x1 DUP3 ADD SWAP1 POP SWAP2 SWAP1 POP JUMP JUMPDEST PUSH0 DUP2 SWAP1 POP DUP2 PUSH0 MSTORE PUSH1 0x20 PUSH0 KECCAK256 SWAP1 POP SWAP2 SWAP1 POP JUMP JUMPDEST PUSH0 PUSH1 0x20 PUSH1 0x1F DUP4 ADD DIV SWAP1 POP SWAP2 SWAP1 POP JUMP JUMPDEST PUSH0 DUP3 DUP3 SHL SWAP1 POP SWAP3 SWAP2 POP POP JUMP JUMPDEST PUSH0 PUSH1 0x8 DUP4 MUL PUSH2 0x629 PUSH32 0xFFFFFFFFFFFFFFFFFFFFFFFFFFFFFFFFFFFFFFFFFFFFFFFFFFFFFFFFFFFFFFFF DUP3 PUSH2 0x5EE JUMP JUMPDEST PUSH2 0x633 DUP7 DUP4 PUSH2 0x5EE JUMP JUMPDEST SWAP6 POP DUP1 NOT DUP5 AND SWAP4 POP DUP1 DUP7 AND DUP5 OR SWAP3 POP POP POP SWAP4 SWAP3 POP POP POP JUMP JUMPDEST PUSH0 DUP2 SWAP1 POP SWAP2 SWAP1 POP JUMP JUMPDEST PUSH0 PUSH2 0x66E PUSH2 0x669 PUSH2 0x664 DUP5 PUSH2 0x273 JUMP JUMPDEST PUSH2 0x64B JUMP JUMPDEST PUSH2 0x273 JUMP JUMPDEST SWAP1 POP SWAP2 SWAP1 POP JUMP JUMPDEST PUSH0 DUP2 SWAP1 POP SWAP2 SWAP1 POP JUMP JUMPDEST PUSH2 0x687 DUP4 PUSH2 0x654 JUMP JUMPDEST PUSH2 0x69B PUSH2 0x693 DUP3 PUSH2 0x675 JUMP JUMPDEST DUP5 DUP5 SLOAD PUSH2 0x5FA JUMP JUMPDEST DUP3 SSTORE POP POP POP POP JUMP JUMPDEST PUSH0 SWAP1 JUMP JUMPDEST PUSH2 0x6AF PUSH2 0x6A3 JUMP JUMPDEST PUSH2 0x6BA DUP2 DUP5 DUP5 PUSH2 0x67E JUMP JUMPDEST POP POP POP JUMP JUMPDEST JUMPDEST DUP2 DUP2 LT ISZERO PUSH2 0x6DD JUMPI PUSH2 0x6D2 PUSH0 DUP3 PUSH2 0x6A7 JUMP JUMPDEST PUSH1 0x1 DUP2 ADD SWAP1 POP PUSH2 0x6C0 JUMP JUMPDEST POP POP JUMP JUMPDEST PUSH1 0x1F DUP3 GT ISZERO PUSH2 0x722 JUMPI PUSH2 0x6F3 DUP2 PUSH2 0x5CD JUMP JUMPDEST PUSH2 0x6FC DUP5 PUSH2 0x5DF JUMP JUMPDEST DUP2 ADD PUSH1 0x20 DUP6 LT ISZERO PUSH2 0x70B JUMPI DUP2 SWAP1 POP JUMPDEST PUSH2 0x71F PUSH2 0x717 DUP6 PUSH2 0x5DF JUMP JUMPDEST DUP4 ADD DUP3 PUSH2 0x6BF JUMP JUMPDEST POP POP JUMPDEST POP POP POP JUMP JUMPDEST PUSH0 DUP3 DUP3 SHR SWAP1 POP SWAP3 SWAP2 POP POP JUMP JUMPDEST PUSH0 PUSH2 0x742 PUSH0 NOT DUP5 PUSH1 0x8 MUL PUSH2 0x727 JUMP JUMPDEST NOT DUP1 DUP4 AND SWAP2 POP POP SWAP3 SWAP2 POP POP JUMP JUMPDEST PUSH0 PUSH2 0x75A DUP4 DUP4 PUSH2 0x733 JUMP JUMPDEST SWAP2 POP DUP3 PUSH1 0x2 MUL DUP3 OR SWAP1 POP SWAP3 SWAP2 POP POP JUMP JUMPDEST PUSH2 0x773 DUP3 PUSH2 0x2D1 JUMP JUMPDEST PUSH8 0xFFFFFFFFFFFFFFFF DUP2 GT ISZERO PUSH2 0x78C JUMPI PUSH2 0x78B PUSH2 0x391 JUMP JUMPDEST JUMPDEST PUSH2 0x796 DUP3 SLOAD PUSH2 0x529 JUMP JUMPDEST PUSH2 0x7A1 DUP3 DUP3 DUP6 PUSH2 0x6E1 JUMP JUMPDEST PUSH0 PUSH1 0x20 SWAP1 POP PUSH1 0x1F DUP4 GT PUSH1 0x1 DUP2 EQ PUSH2 0x7D2 JUMPI PUSH0 DUP5 ISZERO PUSH2 0x7C0 JUMPI DUP3 DUP8 ADD MLOAD SWAP1 POP JUMPDEST PUSH2 0x7CA DUP6 DUP3 PUSH2 0x74F JUMP JUMPDEST DUP7 SSTORE POP PUSH2 0x831 JUMP JUMPDEST PUSH1 0x1F NOT DUP5 AND PUSH2 0x7E0 DUP7 PUSH2 0x5CD JUMP JUMPDEST PUSH0 JUMPDEST DUP3 DUP2 LT ISZERO PUSH2 0x807 JUMPI DUP5 DUP10 ADD MLOAD DUP3 SSTORE PUSH1 0x1 DUP3 ADD SWAP2 POP PUSH1 0x20 DUP6 ADD SWAP5 POP PUSH1 0x20 DUP2 ADD SWAP1 POP PUSH2 0x7E2 JUMP JUMPDEST DUP7 DUP4 LT ISZERO PUSH2 0x824 JUMPI DUP5 DUP10 ADD MLOAD PUSH2 0x820 PUSH1 0x1F DUP10 AND DUP3 PUSH2 0x733 JUMP JUMPDEST DUP4 SSTORE POP JUMPDEST PUSH1 0x1 PUSH1 0x2 DUP9 MUL ADD DUP9 SSTORE POP POP POP JUMPDEST POP POP POP POP POP POP JUMP INVALID LOG2 PUSH5 0x6970667358 0x22 SLT KECCAK256 0x21 SWAP7 MSTORE 0xD2 0xDE GASPRICE BALANCE DUP6 ADD MUL 0xD5 0xCC CALLDATALOAD 0xC 0xB5 LOG4 DUP15 0xE6 0xD9 0xD0 0xE3 DELEGATECALL 0xA5 0x4D MULMOD SWAP9 SLOAD 0xAC LOG3 DUP5 0xC6 TLOAD PUSH5 0x736F6C6343 STOP ADDMOD BYTE STOP CALLER "
		},
		"gasEstimates": {
			"creation": {
				"codeDepositCost": "431800",
				"executionCost": "5471",
				"totalCost": "437271"
			},
			"external": {
				"addTransactionHash(string)": "infinite",
				"getTransactionHash(uint256)": "infinite",
				"transactionCount()": "2447",
				"transactionHashes(uint256)": "infinite"
			}
		},
		"methodIdentifiers": {
			"addTransactionHash(string)": "f825c803",
			"getTransactionHash(uint256)": "11134384",
			"transactionCount()": "b77bf600",
			"transactionHashes(uint256)": "213dafcd"
		}
	},
	"abi": [
		{
			"inputs": [
				{
					"internalType": "string",
					"name": "_hash",
					"type": "string"
				}
			],
			"name": "addTransactionHash",
			"outputs": [],
			"stateMutability": "nonpayable",
			"type": "function"
		},
		{
			"inputs": [
				{
					"internalType": "uint256",
					"name": "_id",
					"type": "uint256"
				}
			],
			"name": "getTransactionHash",
			"outputs": [
				{
					"internalType": "string",
					"name": "",
					"type": "string"
				}
			],
			"stateMutability": "view",
			"type": "function"
		},
		{
			"inputs": [],
			"name": "transactionCount",
			"outputs": [
				{
					"internalType": "uint256",
					"name": "",
					"type": "uint256"
				}
			],
			"stateMutability": "view",
			"type": "function"
		},
		{
			"inputs": [
				{
					"internalType": "uint256",
					"name": "",
					"type": "uint256"
				}
			],
			"name": "transactionHashes",
			"outputs": [
				{
					"internalType": "string",
					"name": "",
					"type": "string"
				}
			],
			"stateMutability": "view",
			"type": "function"
		}
	]
}